{
  "_format": "hh-sol-artifact-1",
  "contractName": "Keeper",
  "sourceName": "contracts/GnosisSafeL2.sol",
  "abi": [
    {
      "inputs": [],
      "stateMutability": "nonpayable",
      "type": "constructor"
    },
    {
      "inputs": [],
      "name": "KP3R",
      "outputs": [
        {
          "internalType": "contract IKeep3rV1",
          "name": "",
          "type": "address"
        }
      ],
      "stateMutability": "view",
      "type": "function"
    },
    {
      "inputs": [],
      "name": "acceptGovernance",
      "outputs": [],
      "stateMutability": "nonpayable",
      "type": "function"
    },
    {
      "inputs": [
        {
          "internalType": "address",
          "name": "pair",
          "type": "address"
        }
      ],
      "name": "byteCode",
      "outputs": [
        {
          "internalType": "bytes",
          "name": "bytecode",
          "type": "bytes"
        }
      ],
      "stateMutability": "pure",
      "type": "function"
    },
    {
      "inputs": [
        {
          "internalType": "uint256",
          "name": "size",
          "type": "uint256"
        }
      ],
      "name": "cache",
      "outputs": [],
      "stateMutability": "nonpayable",
      "type": "function"
    },
    {
      "inputs": [
        {
          "internalType": "address",
          "name": "pair",
          "type": "address"
        },
        {
          "internalType": "uint256",
          "name": "size",
          "type": "uint256"
        }
      ],
      "name": "cache",
      "outputs": [],
      "stateMutability": "nonpayable",
      "type": "function"
    },
    {
      "inputs": [
        {
          "internalType": "address",
          "name": "pair",
          "type": "address"
        },
        {
          "internalType": "address",
          "name": "tokenIn",
          "type": "address"
        },
        {
          "internalType": "uint256",
          "name": "amountIn",
          "type": "uint256"
        },
        {
          "internalType": "address",
          "name": "tokenOut",
          "type": "address"
        }
      ],
      "name": "current",
      "outputs": [
        {
          "internalType": "uint256",
          "name": "amountOut",
          "type": "uint256"
        },
        {
          "internalType": "uint256",
          "name": "lastUpdatedAgo",
          "type": "uint256"
        }
      ],
      "stateMutability": "view",
      "type": "function"
    },
    {
      "inputs": [
        {
          "internalType": "address",
          "name": "tokenIn",
          "type": "address"
        },
        {
          "internalType": "uint256",
          "name": "amountIn",
          "type": "uint256"
        },
        {
          "internalType": "address",
          "name": "tokenOut",
          "type": "address"
        },
        {
          "internalType": "bool",
          "name": "sushiswap",
          "type": "bool"
        }
      ],
      "name": "current",
      "outputs": [
        {
          "internalType": "uint256",
          "name": "amountOut",
          "type": "uint256"
        },
        {
          "internalType": "uint256",
          "name": "lastUpdatedAgo",
          "type": "uint256"
        }
      ],
      "stateMutability": "view",
      "type": "function"
    },
    {
      "inputs": [
        {
          "internalType": "address",
          "name": "pair",
          "type": "address"
        }
      ],
      "name": "deploy",
      "outputs": [
        {
          "internalType": "address",
          "name": "feed",
          "type": "address"
        }
      ],
      "stateMutability": "nonpayable",
      "type": "function"
    },
    {
      "inputs": [
        {
          "internalType": "address",
          "name": "",
          "type": "address"
        }
      ],
      "name": "feeds",
      "outputs": [
        {
          "internalType": "contract Keep3rV2Oracle",
          "name": "",
          "type": "address"
        }
      ],
      "stateMutability": "view",
      "type": "function"
    },
    {
      "inputs": [],
      "name": "governance",
      "outputs": [
        {
          "internalType": "address",
          "name": "",
          "type": "address"
        }
      ],
      "stateMutability": "view",
      "type": "function"
    },
    {
      "inputs": [],
      "name": "pairs",
      "outputs": [
        {
          "internalType": "address[]",
          "name": "",
          "type": "address[]"
        }
      ],
      "stateMutability": "view",
      "type": "function"
    },
    {
      "inputs": [],
      "name": "pendingGovernance",
      "outputs": [
        {
          "internalType": "address",
          "name": "",
          "type": "address"
        }
      ],
      "stateMutability": "view",
      "type": "function"
    },
    {
      "inputs": [
        {
          "internalType": "address",
          "name": "tokenIn",
          "type": "address"
        },
        {
          "internalType": "uint256",
          "name": "amountIn",
          "type": "uint256"
        },
        {
          "internalType": "address",
          "name": "tokenOut",
          "type": "address"
        },
        {
          "internalType": "uint256",
          "name": "points",
          "type": "uint256"
        },
        {
          "internalType": "bool",
          "name": "sushiswap",
          "type": "bool"
        }
      ],
      "name": "quote",
      "outputs": [
        {
          "internalType": "uint256",
          "name": "amountOut",
          "type": "uint256"
        },
        {
          "internalType": "uint256",
          "name": "lastUpdatedAgo",
          "type": "uint256"
        }
      ],
      "stateMutability": "view",
      "type": "function"
    },
    {
      "inputs": [
        {
          "internalType": "address",
          "name": "pair",
          "type": "address"
        },
        {
          "internalType": "address",
          "name": "tokenIn",
          "type": "address"
        },
        {
          "internalType": "uint256",
          "name": "amountIn",
          "type": "uint256"
        },
        {
          "internalType": "address",
          "name": "tokenOut",
          "type": "address"
        },
        {
          "internalType": "uint256",
          "name": "points",
          "type": "uint256"
        }
      ],
      "name": "quote",
      "outputs": [
        {
          "internalType": "uint256",
          "name": "amountOut",
          "type": "uint256"
        },
        {
          "internalType": "uint256",
          "name": "lastUpdatedAgo",
          "type": "uint256"
        }
      ],
      "stateMutability": "view",
      "type": "function"
    },
    {
      "inputs": [
        {
          "internalType": "address",
          "name": "tokenIn",
          "type": "address"
        },
        {
          "internalType": "uint256",
          "name": "amountIn",
          "type": "uint256"
        },
        {
          "internalType": "address",
          "name": "tokenOut",
          "type": "address"
        },
        {
          "internalType": "uint256",
          "name": "points",
          "type": "uint256"
        },
        {
          "internalType": "uint256",
          "name": "window",
          "type": "uint256"
        },
        {
          "internalType": "bool",
          "name": "sushiswap",
          "type": "bool"
        }
      ],
      "name": "sample",
      "outputs": [
        {
          "internalType": "uint256[]",
          "name": "prices",
          "type": "uint256[]"
        },
        {
          "internalType": "uint256",
          "name": "lastUpdatedAgo",
          "type": "uint256"
        }
      ],
      "stateMutability": "view",
      "type": "function"
    },
    {
      "inputs": [
        {
          "internalType": "address",
          "name": "pair",
          "type": "address"
        },
        {
          "internalType": "address",
          "name": "tokenIn",
          "type": "address"
        },
        {
          "internalType": "uint256",
          "name": "amountIn",
          "type": "uint256"
        },
        {
          "internalType": "address",
          "name": "tokenOut",
          "type": "address"
        },
        {
          "internalType": "uint256",
          "name": "points",
          "type": "uint256"
        },
        {
          "internalType": "uint256",
          "name": "window",
          "type": "uint256"
        }
      ],
      "name": "sample",
      "outputs": [
        {
          "internalType": "uint256[]",
          "name": "prices",
          "type": "uint256[]"
        },
        {
          "internalType": "uint256",
          "name": "lastUpdatedAgo",
          "type": "uint256"
        }
      ],
      "stateMutability": "view",
      "type": "function"
    },
    {
      "inputs": [
        {
          "internalType": "address",
          "name": "_governance",
          "type": "address"
        }
      ],
      "name": "setGovernance",
      "outputs": [],
      "stateMutability": "nonpayable",
      "type": "function"
    },
    {
      "inputs": [
        {
          "internalType": "address",
          "name": "pair",
          "type": "address"
        }
      ],
      "name": "update",
      "outputs": [
        {
          "internalType": "bool",
          "name": "",
          "type": "bool"
        }
      ],
      "stateMutability": "nonpayable",
      "type": "function"
    },
    {
      "inputs": [],
      "name": "work",
      "outputs": [],
      "stateMutability": "nonpayable",
      "type": "function"
    },
    {
      "inputs": [
        {
          "internalType": "address",
          "name": "pair",
          "type": "address"
        }
      ],
      "name": "work",
      "outputs": [],
      "stateMutability": "nonpayable",
      "type": "function"
    },
    {
      "inputs": [],
      "name": "workForFree",
      "outputs": [],
      "stateMutability": "nonpayable",
      "type": "function"
    },
    {
      "inputs": [
        {
          "internalType": "address",
          "name": "pair",
          "type": "address"
        }
      ],
      "name": "workForFree",
      "outputs": [],
      "stateMutability": "nonpayable",
      "type": "function"
    },
    {
      "inputs": [],
      "name": "workable",
      "outputs": [
        {
          "internalType": "bool",
          "name": "canWork",
          "type": "bool"
        }
      ],
      "stateMutability": "view",
      "type": "function"
    },
    {
      "inputs": [
        {
          "internalType": "address",
          "name": "pair",
          "type": "address"
        }
      ],
      "name": "workable",
      "outputs": [
        {
          "internalType": "bool",
          "name": "",
          "type": "bool"
        }
      ],
      "stateMutability": "view",
      "type": "function"
    }
  ],
  "bytecode": "0x608060405234801561001057600080fd5b506001600481905550615f6280620000296000396000f3fe6080604052600436106101f25760003560e01c8063a0e67e2b1161010d578063e009cfde116100a0578063e86637db1161006f578063e86637db14611620578063f08a0323146117bf578063f698da2514611810578063f8dc5dd91461183b578063ffa1ad74146118b657610247565b8063e009cfde146114a2578063e19a9dd914611513578063e318b52b14611564578063e75235b8146115f557610247565b8063c4ca3a9c116100dc578063c4ca3a9c1461118f578063cc2f845214611260578063d4d9bdcd1461132d578063d8d11f781461136857610247565b8063a0e67e2b14610ea0578063affed0e014610f0c578063b4faba0914610f37578063b63e800d1461101f57610247565b80635624b25b116101855780636a761202116101545780636a76120214610a865780637d83297414610c4257806385a5affe14610cb1578063934f3a1114610d3757610247565b80635624b25b146108ed5780635ae6bd37146109ab578063610b5925146109fa578063694e80c314610a4b57610247565b80632f54bf6e116101c15780632f54bf6e146105c55780633408e4701461062c578063468721a7146106575780635229073f1461076c57610247565b80630a1028c4146102b45780630d582f131461039057806312fb68e0146103eb5780632d9ad53d1461055e57610247565b36610247573373ffffffffffffffffffffffffffffffffffffffff167f3d0ce9bfc3ed7d6862dbb28b2dea94561fe714a1b4d019aa8af39730d1ad7c3d346040518082815260200191505060405180910390a2005b34801561025357600080fd5b5060007f6c9a6c4a39284e37ed1cf53d337577d14212a4870fb976a4366c693b939918d560001b905080548061028857600080f35b36600080373360601b365260008060143601600080855af13d6000803e806102af573d6000fd5b3d6000f35b3480156102c057600080fd5b5061037a600480360360208110156102d757600080fd5b81019080803590602001906401000000008111156102f457600080fd5b82018360208201111561030657600080fd5b8035906020019184600183028401116401000000008311171561032857600080fd5b91908080601f016020809104026020016040519081016040528093929190818152602001838380828437600081840152601f19601f820116905080830192505050505050509192919290505050611946565b6040518082815260200191505060405180910390f35b34801561039c57600080fd5b506103e9600480360360408110156103b357600080fd5b81019080803573ffffffffffffffffffffffffffffffffffffffff16906020019092919080359060200190929190505050611a3e565b005b3480156103f757600080fd5b5061055c6004803603608081101561040e57600080fd5b81019080803590602001909291908035906020019064010000000081111561043557600080fd5b82018360208201111561044757600080fd5b8035906020019184600183028401116401000000008311171561046957600080fd5b91908080601f016020809104026020016040519081016040528093929190818152602001838380828437600081840152601f19601f820116905080830192505050505050509192919290803590602001906401000000008111156104cc57600080fd5b8201836020820111156104de57600080fd5b8035906020019184600183028401116401000000008311171561050057600080fd5b91908080601f016020809104026020016040519081016040528093929190818152602001838380828437600081840152601f19601f82011690508083019250505050505050919291929080359060200190929190505050611e2e565b005b34801561056a57600080fd5b506105ad6004803603602081101561058157600080fd5b81019080803573ffffffffffffffffffffffffffffffffffffffff1690602001909291905050506126b0565b60405180821515815260200191505060405180910390f35b3480156105d157600080fd5b50610614600480360360208110156105e857600080fd5b81019080803573ffffffffffffffffffffffffffffffffffffffff169060200190929190505050612782565b60405180821515815260200191505060405180910390f35b34801561063857600080fd5b50610641612854565b6040518082815260200191505060405180910390f35b34801561066357600080fd5b506107546004803603608081101561067a57600080fd5b81019080803573ffffffffffffffffffffffffffffffffffffffff16906020019092919080359060200190929190803590602001906401000000008111156106c157600080fd5b8201836020820111156106d357600080fd5b803590602001918460018302840111640100000000831117156106f557600080fd5b91908080601f016020809104026020016040519081016040528093929190818152602001838380828437600081840152601f19601f820116905080830192505050505050509192919290803560ff169060200190929190505050612861565b60405180821515815260200191505060405180910390f35b34801561077857600080fd5b506108696004803603608081101561078f57600080fd5b81019080803573ffffffffffffffffffffffffffffffffffffffff16906020019092919080359060200190929190803590602001906401000000008111156107d657600080fd5b8201836020820111156107e857600080fd5b8035906020019184600183028401116401000000008311171561080a57600080fd5b91908080601f016020809104026020016040519081016040528093929190818152602001838380828437600081840152601f19601f820116905080830192505050505050509192919290803560ff16906020019092919050505061296c565b60405180831515815260200180602001828103825283818151815260200191508051906020019080838360005b838110156108b1578082015181840152602081019050610896565b50505050905090810190601f1680156108de5780820380516001836020036101000a031916815260200191505b50935050505060405180910390f35b3480156108f957600080fd5b506109306004803603604081101561091057600080fd5b8101908080359060200190929190803590602001909291905050506129a2565b6040518080602001828103825283818151815260200191508051906020019080838360005b83811015610970578082015181840152602081019050610955565b50505050905090810190601f16801561099d5780820380516001836020036101000a031916815260200191505b509250505060405180910390f35b3480156109b757600080fd5b506109e4600480360360208110156109ce57600080fd5b8101908080359060200190929190505050612a29565b6040518082815260200191505060405180910390f35b348015610a0657600080fd5b50610a4960048036036020811015610a1d57600080fd5b81019080803573ffffffffffffffffffffffffffffffffffffffff169060200190929190505050612a41565b005b348015610a5757600080fd5b50610a8460048036036020811015610a6e57600080fd5b8101908080359060200190929190505050612dd3565b005b610c2a6004803603610140811015610a9d57600080fd5b81019080803573ffffffffffffffffffffffffffffffffffffffff1690602001909291908035906020019092919080359060200190640100000000811115610ae457600080fd5b820183602082011115610af657600080fd5b80359060200191846001830284011164010000000083111715610b1857600080fd5b9091929391929390803560ff169060200190929190803590602001909291908035906020019092919080359060200190929190803573ffffffffffffffffffffffffffffffffffffffff169060200190929190803573ffffffffffffffffffffffffffffffffffffffff16906020019092919080359060200190640100000000811115610ba457600080fd5b820183602082011115610bb657600080fd5b80359060200191846001830284011164010000000083111715610bd857600080fd5b91908080601f016020809104026020016040519081016040528093929190818152602001838380828437600081840152601f19601f820116905080830192505050505050509192919290505050612f0d565b60405180821515815260200191505060405180910390f35b348015610c4e57600080fd5b50610c9b60048036036040811015610c6557600080fd5b81019080803573ffffffffffffffffffffffffffffffffffffffff1690602001909291908035906020019092919050505061314c565b6040518082815260200191505060405180910390f35b348015610cbd57600080fd5b50610d3560048036036020811015610cd457600080fd5b8101908080359060200190640100000000811115610cf157600080fd5b820183602082011115610d0357600080fd5b80359060200191846001830284011164010000000083111715610d2557600080fd5b9091929391929390505050613171565b005b348015610d4357600080fd5b50610e9e60048036036060811015610d5a57600080fd5b810190808035906020019092919080359060200190640100000000811115610d8157600080fd5b820183602082011115610d9357600080fd5b80359060200191846001830284011164010000000083111715610db557600080fd5b91908080601f016020809104026020016040519081016040528093929190818152602001838380828437600081840152601f19601f82011690508083019250505050505050919291929080359060200190640100000000811115610e1857600080fd5b820183602082011115610e2a57600080fd5b80359060200191846001830284011164010000000083111715610e4c57600080fd5b91908080601f016020809104026020016040519081016040528093929190818152602001838380828437600081840152601f19601f820116905080830192505050505050509192919290505050613215565b005b348015610eac57600080fd5b50610eb56132a4565b6040518080602001828103825283818151815260200191508051906020019060200280838360005b83811015610ef8578082015181840152602081019050610edd565b505050509050019250505060405180910390f35b348015610f1857600080fd5b50610f2161344d565b6040518082815260200191505060405180910390f35b348015610f4357600080fd5b5061101d60048036036040811015610f5a57600080fd5b81019080803573ffffffffffffffffffffffffffffffffffffffff16906020019092919080359060200190640100000000811115610f9757600080fd5b820183602082011115610fa957600080fd5b80359060200191846001830284011164010000000083111715610fcb57600080fd5b91908080601f016020809104026020016040519081016040528093929190818152602001838380828437600081840152601f19601f820116905080830192505050505050509192919290505050613453565b005b34801561102b57600080fd5b5061118d600480360361010081101561104357600080fd5b810190808035906020019064010000000081111561106057600080fd5b82018360208201111561107257600080fd5b8035906020019184602083028401116401000000008311171561109457600080fd5b909192939192939080359060200190929190803573ffffffffffffffffffffffffffffffffffffffff169060200190929190803590602001906401000000008111156110df57600080fd5b8201836020820111156110f157600080fd5b8035906020019184600183028401116401000000008311171561111357600080fd5b9091929391929390803573ffffffffffffffffffffffffffffffffffffffff169060200190929190803573ffffffffffffffffffffffffffffffffffffffff16906020019092919080359060200190929190803573ffffffffffffffffffffffffffffffffffffffff169060200190929190505050613475565b005b34801561119b57600080fd5b5061124a600480360360808110156111b257600080fd5b81019080803573ffffffffffffffffffffffffffffffffffffffff16906020019092919080359060200190929190803590602001906401000000008111156111f957600080fd5b82018360208201111561120b57600080fd5b8035906020019184600183028401116401000000008311171561122d57600080fd5b9091929391929390803560ff169060200190929190505050613633565b6040518082815260200191505060405180910390f35b34801561126c57600080fd5b506112b96004803603604081101561128357600080fd5b81019080803573ffffffffffffffffffffffffffffffffffffffff1690602001909291908035906020019092919050505061375b565b60405180806020018373ffffffffffffffffffffffffffffffffffffffff168152602001828103825284818151815260200191508051906020019060200280838360005b838110156113185780820151818401526020810190506112fd565b50505050905001935050505060405180910390f35b34801561133957600080fd5b506113666004803603602081101561135057600080fd5b810190808035906020019092919050505061394d565b005b34801561137457600080fd5b5061148c600480360361014081101561138c57600080fd5b81019080803573ffffffffffffffffffffffffffffffffffffffff16906020019092919080359060200190929190803590602001906401000000008111156113d357600080fd5b8201836020820111156113e557600080fd5b8035906020019184600183028401116401000000008311171561140757600080fd5b9091929391929390803560ff169060200190929190803590602001909291908035906020019092919080359060200190929190803573ffffffffffffffffffffffffffffffffffffffff169060200190929190803573ffffffffffffffffffffffffffffffffffffffff16906020019092919080359060200190929190505050613aec565b6040518082815260200191505060405180910390f35b3480156114ae57600080fd5b50611511600480360360408110156114c557600080fd5b81019080803573ffffffffffffffffffffffffffffffffffffffff169060200190929190803573ffffffffffffffffffffffffffffffffffffffff169060200190929190505050613b19565b005b34801561151f57600080fd5b506115626004803603602081101561153657600080fd5b81019080803573ffffffffffffffffffffffffffffffffffffffff169060200190929190505050613eaa565b005b34801561157057600080fd5b506115f36004803603606081101561158757600080fd5b81019080803573ffffffffffffffffffffffffffffffffffffffff169060200190929190803573ffffffffffffffffffffffffffffffffffffffff169060200190929190803573ffffffffffffffffffffffffffffffffffffffff169060200190929190505050613f2e565b005b34801561160157600080fd5b5061160a6145a0565b6040518082815260200191505060405180910390f35b34801561162c57600080fd5b50611744600480360361014081101561164457600080fd5b81019080803573ffffffffffffffffffffffffffffffffffffffff169060200190929190803590602001909291908035906020019064010000000081111561168b57600080fd5b82018360208201111561169d57600080fd5b803590602001918460018302840111640100000000831117156116bf57600080fd5b9091929391929390803560ff169060200190929190803590602001909291908035906020019092919080359060200190929190803573ffffffffffffffffffffffffffffffffffffffff169060200190929190803573ffffffffffffffffffffffffffffffffffffffff169060200190929190803590602001909291905050506145aa565b6040518080602001828103825283818151815260200191508051906020019080838360005b83811015611784578082015181840152602081019050611769565b50505050905090810190601f1680156117b15780820380516001836020036101000a031916815260200191505b509250505060405180910390f35b3480156117cb57600080fd5b5061180e600480360360208110156117e257600080fd5b81019080803573ffffffffffffffffffffffffffffffffffffffff169060200190929190505050614752565b005b34801561181c57600080fd5b506118256147b3565b6040518082815260200191505060405180910390f35b34801561184757600080fd5b506118b46004803603606081101561185e57600080fd5b81019080803573ffffffffffffffffffffffffffffffffffffffff169060200190929190803573ffffffffffffffffffffffffffffffffffffffff16906020019092919080359060200190929190505050614831565b005b3480156118c257600080fd5b506118cb614c64565b6040518080602001828103825283818151815260200191508051906020019080838360005b8381101561190b5780820151818401526020810190506118f0565b50505050905090810190601f1680156119385780820380516001836020036101000a031916815260200191505b509250505060405180910390f35b6000807f60b3cbf8b4a223d68d641b3b6ddf9a298e7f33710cf3d3a9d1146b5a6150fbca60001b83805190602001206040516020018083815260200182815260200192505050604051602081830303815290604052805190602001209050601960f81b600160f81b6119b66147b3565b8360405160200180857effffffffffffffffffffffffffffffffffffffffffffffffffffffffffffff19168152600101847effffffffffffffffffffffffffffffffffffffffffffffffffffffffffffff1916815260010183815260200182815260200194505050505060405160208183030381529060405280519060200120915050919050565b611a46614c9d565b600073ffffffffffffffffffffffffffffffffffffffff168273ffffffffffffffffffffffffffffffffffffffff1614158015611ab05750600173ffffffffffffffffffffffffffffffffffffffff168273ffffffffffffffffffffffffffffffffffffffff1614155b8015611ae857503073ffffffffffffffffffffffffffffffffffffffff168273ffffffffffffffffffffffffffffffffffffffff1614155b611b5a576040517f08c379a00000000000000000000000000000000000000000000000000000000081526004018080602001828103825260058152602001807f475332303300000000000000000000000000000000000000000000000000000081525060200191505060405180910390fd5b600073ffffffffffffffffffffffffffffffffffffffff16600260008473ffffffffffffffffffffffffffffffffffffffff1673ffffffffffffffffffffffffffffffffffffffff16815260200190815260200160002060009054906101000a900473ffffffffffffffffffffffffffffffffffffffff1673ffffffffffffffffffffffffffffffffffffffff1614611c5b576040517f08c379a00000000000000000000000000000000000000000000000000000000081526004018080602001828103825260058152602001807f475332303400000000000000000000000000000000000000000000000000000081525060200191505060405180910390fd5b60026000600173ffffffffffffffffffffffffffffffffffffffff1673ffffffffffffffffffffffffffffffffffffffff16815260200190815260200160002060009054906101000a900473ffffffffffffffffffffffffffffffffffffffff16600260008473ffffffffffffffffffffffffffffffffffffffff1673ffffffffffffffffffffffffffffffffffffffff16815260200190815260200160002060006101000a81548173ffffffffffffffffffffffffffffffffffffffff021916908373ffffffffffffffffffffffffffffffffffffffff1602179055508160026000600173ffffffffffffffffffffffffffffffffffffffff1673ffffffffffffffffffffffffffffffffffffffff16815260200190815260200160002060006101000a81548173ffffffffffffffffffffffffffffffffffffffff021916908373ffffffffffffffffffffffffffffffffffffffff1602179055506003600081548092919060010191905055507f9465fa0c962cc76958e6373a993326400c1c94f8be2fe3a952adfa7f60b2ea2682604051808273ffffffffffffffffffffffffffffffffffffffff16815260200191505060405180910390a18060045414611e2a57611e2981612dd3565b5b5050565b611e42604182614d4090919063ffffffff16565b82511015611eb8576040517f08c379a00000000000000000000000000000000000000000000000000000000081526004018080602001828103825260058152602001807f475330323000000000000000000000000000000000000000000000000000000081525060200191505060405180910390fd5b6000808060008060005b868110156126a457611ed48882614d7a565b80945081955082965050505060008460ff1614156122dd578260001c9450611f06604188614d4090919063ffffffff16565b8260001c1015611f7e576040517f08c379a00000000000000000000000000000000000000000000000000000000081526004018080602001828103825260058152602001807f475330323100000000000000000000000000000000000000000000000000000081525060200191505060405180910390fd5b8751611f9760208460001c614da990919063ffffffff16565b111561200b576040517f08c379a00000000000000000000000000000000000000000000000000000000081526004018080602001828103825260058152602001807f475330323200000000000000000000000000000000000000000000000000000081525060200191505060405180910390fd5b60006020838a010151905088516120418261203360208760001c614da990919063ffffffff16565b614da990919063ffffffff16565b11156120b5576040517f08c379a00000000000000000000000000000000000000000000000000000000081526004018080602001828103825260058152602001807f475330323300000000000000000000000000000000000000000000000000000081525060200191505060405180910390fd5b60606020848b010190506320c13b0b60e01b7bffffffffffffffffffffffffffffffffffffffffffffffffffffffff19168773ffffffffffffffffffffffffffffffffffffffff166320c13b0b8d846040518363ffffffff1660e01b8152600401808060200180602001838103835285818151815260200191508051906020019080838360005b8381101561215757808201518184015260208101905061213c565b50505050905090810190601f1680156121845780820380516001836020036101000a031916815260200191505b50838103825284818151815260200191508051906020019080838360005b838110156121bd5780820151818401526020810190506121a2565b50505050905090810190601f1680156121ea5780820380516001836020036101000a031916815260200191505b5094505050505060206040518083038186803b15801561220957600080fd5b505afa15801561221d573d6000803e3d6000fd5b505050506040513d602081101561223357600080fd5b81019080805190602001909291905050507bffffffffffffffffffffffffffffffffffffffffffffffffffffffff1916146122d6576040517f08c379a00000000000000000000000000000000000000000000000000000000081526004018080602001828103825260058152602001807f475330323400000000000000000000000000000000000000000000000000000081525060200191505060405180910390fd5b5050612522565b60018460ff1614156123f1578260001c94508473ffffffffffffffffffffffffffffffffffffffff163373ffffffffffffffffffffffffffffffffffffffff16148061237a57506000600860008773ffffffffffffffffffffffffffffffffffffffff1673ffffffffffffffffffffffffffffffffffffffff16815260200190815260200160002060008c81526020019081526020016000205414155b6123ec576040517f08c379a00000000000000000000000000000000000000000000000000000000081526004018080602001828103825260058152602001807f475330323500000000000000000000000000000000000000000000000000000081525060200191505060405180910390fd5b612521565b601e8460ff1611156124b95760018a60405160200180807f19457468657265756d205369676e6564204d6573736167653a0a333200000000815250601c018281526020019150506040516020818303038152906040528051906020012060048603858560405160008152602001604052604051808581526020018460ff1681526020018381526020018281526020019450505050506020604051602081039080840390855afa1580156124a8573d6000803e3d6000fd5b505050602060405103519450612520565b60018a85858560405160008152602001604052604051808581526020018460ff1681526020018381526020018281526020019450505050506020604051602081039080840390855afa158015612513573d6000803e3d6000fd5b5050506020604051035194505b5b5b8573ffffffffffffffffffffffffffffffffffffffff168573ffffffffffffffffffffffffffffffffffffffff161180156125e95750600073ffffffffffffffffffffffffffffffffffffffff16600260008773ffffffffffffffffffffffffffffffffffffffff1673ffffffffffffffffffffffffffffffffffffffff16815260200190815260200160002060009054906101000a900473ffffffffffffffffffffffffffffffffffffffff1673ffffffffffffffffffffffffffffffffffffffff1614155b80156126225750600173ffffffffffffffffffffffffffffffffffffffff168573ffffffffffffffffffffffffffffffffffffffff1614155b612694576040517f08c379a00000000000000000000000000000000000000000000000000000000081526004018080602001828103825260058152602001807f475330323600000000000000000000000000000000000000000000000000000081525060200191505060405180910390fd5b8495508080600101915050611ec2565b50505050505050505050565b60008173ffffffffffffffffffffffffffffffffffffffff16600173ffffffffffffffffffffffffffffffffffffffff161415801561277b5750600073ffffffffffffffffffffffffffffffffffffffff16600160008473ffffffffffffffffffffffffffffffffffffffff1673ffffffffffffffffffffffffffffffffffffffff16815260200190815260200160002060009054906101000a900473ffffffffffffffffffffffffffffffffffffffff1673ffffffffffffffffffffffffffffffffffffffff1614155b9050919050565b6000600173ffffffffffffffffffffffffffffffffffffffff168273ffffffffffffffffffffffffffffffffffffffff161415801561284d5750600073ffffffffffffffffffffffffffffffffffffffff16600260008473ffffffffffffffffffffffffffffffffffffffff1673ffffffffffffffffffffffffffffffffffffffff16815260200190815260200160002060009054906101000a900473ffffffffffffffffffffffffffffffffffffffff1673ffffffffffffffffffffffffffffffffffffffff1614155b9050919050565b6000804690508091505090565b60007fb648d3644f584ed1c2232d53c46d87e693586486ad0d1175f8656013110b714e3386868686604051808673ffffffffffffffffffffffffffffffffffffffff1681526020018573ffffffffffffffffffffffffffffffffffffffff168152602001848152602001806020018360018111156128db57fe5b8152602001828103825284818151815260200191508051906020019080838360005b838110156129185780820151818401526020810190506128fd565b50505050905090810190601f1680156129455780820380516001836020036101000a031916815260200191505b50965050505050505060405180910390a161296285858585614dc8565b9050949350505050565b6000606061297c86868686612861565b915060405160203d0181016040523d81523d6000602083013e8091505094509492505050565b606060006020830267ffffffffffffffff811180156129c057600080fd5b506040519080825280601f01601f1916602001820160405280156129f35781602001600182028036833780820191505090505b50905060005b83811015612a1e578085015480602083026020850101525080806001019150506129f9565b508091505092915050565b60076020528060005260406000206000915090505481565b612a49614c9d565b600073ffffffffffffffffffffffffffffffffffffffff168173ffffffffffffffffffffffffffffffffffffffff1614158015612ab35750600173ffffffffffffffffffffffffffffffffffffffff168173ffffffffffffffffffffffffffffffffffffffff1614155b612b25576040517f08c379a00000000000000000000000000000000000000000000000000000000081526004018080602001828103825260058152602001807f475331303100000000000000000000000000000000000000000000000000000081525060200191505060405180910390fd5b600073ffffffffffffffffffffffffffffffffffffffff16600160008373ffffffffffffffffffffffffffffffffffffffff1673ffffffffffffffffffffffffffffffffffffffff16815260200190815260200160002060009054906101000a900473ffffffffffffffffffffffffffffffffffffffff1673ffffffffffffffffffffffffffffffffffffffff1614612c26576040517f08c379a00000000000000000000000000000000000000000000000000000000081526004018080602001828103825260058152602001807f475331303200000000000000000000000000000000000000000000000000000081525060200191505060405180910390fd5b60016000600173ffffffffffffffffffffffffffffffffffffffff1673ffffffffffffffffffffffffffffffffffffffff16815260200190815260200160002060009054906101000a900473ffffffffffffffffffffffffffffffffffffffff16600160008373ffffffffffffffffffffffffffffffffffffffff1673ffffffffffffffffffffffffffffffffffffffff16815260200190815260200160002060006101000a81548173ffffffffffffffffffffffffffffffffffffffff021916908373ffffffffffffffffffffffffffffffffffffffff1602179055508060016000600173ffffffffffffffffffffffffffffffffffffffff1673ffffffffffffffffffffffffffffffffffffffff16815260200190815260200160002060006101000a81548173ffffffffffffffffffffffffffffffffffffffff021916908373ffffffffffffffffffffffffffffffffffffffff1602179055507fecdf3a3effea5783a3c4c2140e677577666428d44ed9d474a0b3a4c9943f844081604051808273ffffffffffffffffffffffffffffffffffffffff16815260200191505060405180910390a150565b612ddb614c9d565b600354811115612e53576040517f08c379a00000000000000000000000000000000000000000000000000000000081526004018080602001828103825260058152602001807f475332303100000000000000000000000000000000000000000000000000000081525060200191505060405180910390fd5b6001811015612eca576040517f08c379a00000000000000000000000000000000000000000000000000000000081526004018080602001828103825260058152602001807f475332303200000000000000000000000000000000000000000000000000000081525060200191505060405180910390fd5b806004819055507f610f7ff2b304ae8903c3de74c60c6ab1f7d6226b3f52c5161905bb5ad4039c936004546040518082815260200191505060405180910390a150565b6000606060055433600454604051602001808481526020018373ffffffffffffffffffffffffffffffffffffffff168152602001828152602001935050505060405160208183030381529060405290507f66753cd2356569ee081232e3be8909b950e0a76c1f8460c3a5e3c2be32b11bed8d8d8d8d8d8d8d8d8d8d8d8c604051808d73ffffffffffffffffffffffffffffffffffffffff1681526020018c8152602001806020018a6001811115612fc057fe5b81526020018981526020018881526020018781526020018673ffffffffffffffffffffffffffffffffffffffff1681526020018573ffffffffffffffffffffffffffffffffffffffff168152602001806020018060200184810384528e8e82818152602001925080828437600081840152601f19601f820116905080830192505050848103835286818151815260200191508051906020019080838360005b8381101561307a57808201518184015260208101905061305f565b50505050905090810190601f1680156130a75780820380516001836020036101000a031916815260200191505b50848103825285818151815260200191508051906020019080838360005b838110156130e05780820151818401526020810190506130c5565b50505050905090810190601f16801561310d5780820380516001836020036101000a031916815260200191505b509f5050505050505050505050505050505060405180910390a161313a8d8d8d8d8d8d8d8d8d8d8d614fae565b9150509b9a5050505050505050505050565b6008602052816000526040600020602052806000526040600020600091509150505481565b613179614c9d565b60006131c883838080601f016020809104026020016040519081016040528093929190818152602001838380828437600081840152601f19601f82011690508083019250505050505050611946565b905060016007600083815260200190815260200160002081905550807fe7f4675038f4f6034dfcbbb24c4dc08e4ebf10eb9d257d3d02c0f38d122ac6e460405160405180910390a2505050565b6000600454905060008111613292576040517f08c379a00000000000000000000000000000000000000000000000000000000081526004018080602001828103825260058152602001807f475330303100000000000000000000000000000000000000000000000000000081525060200191505060405180910390fd5b61329e84848484611e2e565b50505050565b6060600060035467ffffffffffffffff811180156132c157600080fd5b506040519080825280602002602001820160405280156132f05781602001602082028036833780820191505090505b50905060008060026000600173ffffffffffffffffffffffffffffffffffffffff1673ffffffffffffffffffffffffffffffffffffffff16815260200190815260200160002060009054906101000a900473ffffffffffffffffffffffffffffffffffffffff1690505b600173ffffffffffffffffffffffffffffffffffffffff168173ffffffffffffffffffffffffffffffffffffffff1614613444578083838151811061339b57fe5b602002602001019073ffffffffffffffffffffffffffffffffffffffff16908173ffffffffffffffffffffffffffffffffffffffff1681525050600260008273ffffffffffffffffffffffffffffffffffffffff1673ffffffffffffffffffffffffffffffffffffffff16815260200190815260200160002060009054906101000a900473ffffffffffffffffffffffffffffffffffffffff169050818060010192505061335a565b82935050505090565b60055481565b600080825160208401855af4806000523d6020523d600060403e60403d016000fd5b6134c08a8a80806020026020016040519081016040528093929190818152602001838360200280828437600081840152601f19601f8201169050808301925050505050505089615441565b600073ffffffffffffffffffffffffffffffffffffffff168473ffffffffffffffffffffffffffffffffffffffff16146134fe576134fd84615941565b5b61354c8787878080601f016020809104026020016040519081016040528093929190818152602001838380828437600081840152601f19601f82011690508083019250505050505050615970565b60008211156135665761356482600060018685615bab565b505b3373ffffffffffffffffffffffffffffffffffffffff167f141df868a6331af528e38c83b7aa03edc19be66e37ae67f9285bf4f8e3c6a1a88b8b8b8b8960405180806020018581526020018473ffffffffffffffffffffffffffffffffffffffff1681526020018373ffffffffffffffffffffffffffffffffffffffff1681526020018281038252878782818152602001925060200280828437600081840152601f19601f820116905080830192505050965050505050505060405180910390a250505050505050505050565b6000805a905061368a878787878080601f016020809104026020016040519081016040528093929190818152602001838380828437600081840152601f19601f82011690508083019250505050505050865a615db1565b61369357600080fd5b60005a8203905080604051602001808281526020019150506040516020818303038152906040526040517f08c379a00000000000000000000000000000000000000000000000000000000081526004018080602001828103825283818151815260200191508051906020019080838360005b83811015613720578082015181840152602081019050613705565b50505050905090810190601f16801561374d5780820380516001836020036101000a031916815260200191505b509250505060405180910390fd5b606060008267ffffffffffffffff8111801561377657600080fd5b506040519080825280602002602001820160405280156137a55781602001602082028036833780820191505090505b509150600080600160008773ffffffffffffffffffffffffffffffffffffffff1673ffffffffffffffffffffffffffffffffffffffff16815260200190815260200160002060009054906101000a900473ffffffffffffffffffffffffffffffffffffffff1690505b600073ffffffffffffffffffffffffffffffffffffffff168173ffffffffffffffffffffffffffffffffffffffff16141580156138785750600173ffffffffffffffffffffffffffffffffffffffff168173ffffffffffffffffffffffffffffffffffffffff1614155b801561388357508482105b1561393e578084838151811061389557fe5b602002602001019073ffffffffffffffffffffffffffffffffffffffff16908173ffffffffffffffffffffffffffffffffffffffff1681525050600160008273ffffffffffffffffffffffffffffffffffffffff1673ffffffffffffffffffffffffffffffffffffffff16815260200190815260200160002060009054906101000a900473ffffffffffffffffffffffffffffffffffffffff169050818060010192505061380e565b80925081845250509250929050565b600073ffffffffffffffffffffffffffffffffffffffff16600260003373ffffffffffffffffffffffffffffffffffffffff1673ffffffffffffffffffffffffffffffffffffffff16815260200190815260200160002060009054906101000a900473ffffffffffffffffffffffffffffffffffffffff1673ffffffffffffffffffffffffffffffffffffffff161415613a4f576040517f08c379a00000000000000000000000000000000000000000000000000000000081526004018080602001828103825260058152602001807f475330333000000000000000000000000000000000000000000000000000000081525060200191505060405180910390fd5b6001600860003373ffffffffffffffffffffffffffffffffffffffff1673ffffffffffffffffffffffffffffffffffffffff1681526020019081526020016000206000838152602001908152602001600020819055503373ffffffffffffffffffffffffffffffffffffffff16817ff2a0eb156472d1440255b0d7c1e19cc07115d1051fe605b0dce69acfec884d9c60405160405180910390a350565b6000613b018c8c8c8c8c8c8c8c8c8c8c6145aa565b8051906020012090509b9a5050505050505050505050565b613b21614c9d565b600073ffffffffffffffffffffffffffffffffffffffff168173ffffffffffffffffffffffffffffffffffffffff1614158015613b8b5750600173ffffffffffffffffffffffffffffffffffffffff168173ffffffffffffffffffffffffffffffffffffffff1614155b613bfd576040517f08c379a00000000000000000000000000000000000000000000000000000000081526004018080602001828103825260058152602001807f475331303100000000000000000000000000000000000000000000000000000081525060200191505060405180910390fd5b8073ffffffffffffffffffffffffffffffffffffffff16600160008473ffffffffffffffffffffffffffffffffffffffff1673ffffffffffffffffffffffffffffffffffffffff16815260200190815260200160002060009054906101000a900473ffffffffffffffffffffffffffffffffffffffff1673ffffffffffffffffffffffffffffffffffffffff1614613cfd576040517f08c379a00000000000000000000000000000000000000000000000000000000081526004018080602001828103825260058152602001807f475331303300000000000000000000000000000000000000000000000000000081525060200191505060405180910390fd5b600160008273ffffffffffffffffffffffffffffffffffffffff1673ffffffffffffffffffffffffffffffffffffffff16815260200190815260200160002060009054906101000a900473ffffffffffffffffffffffffffffffffffffffff16600160008473ffffffffffffffffffffffffffffffffffffffff1673ffffffffffffffffffffffffffffffffffffffff16815260200190815260200160002060006101000a81548173ffffffffffffffffffffffffffffffffffffffff021916908373ffffffffffffffffffffffffffffffffffffffff1602179055506000600160008373ffffffffffffffffffffffffffffffffffffffff1673ffffffffffffffffffffffffffffffffffffffff16815260200190815260200160002060006101000a81548173ffffffffffffffffffffffffffffffffffffffff021916908373ffffffffffffffffffffffffffffffffffffffff1602179055507faab4fa2b463f581b2b32cb3b7e3b704b9ce37cc209b5fb4d77e593ace405427681604051808273ffffffffffffffffffffffffffffffffffffffff16815260200191505060405180910390a15050565b613eb2614c9d565b60007f4a204f620c8c5ccdca3fd54d003badd85ba500436a431f0cbda4f558c93c34c860001b90508181557f1151116914515bc0891ff9047a6cb32cf902546f83066499bcf8ba33d2353fa282604051808273ffffffffffffffffffffffffffffffffffffffff16815260200191505060405180910390a15050565b613f36614c9d565b600073ffffffffffffffffffffffffffffffffffffffff168173ffffffffffffffffffffffffffffffffffffffff1614158015613fa05750600173ffffffffffffffffffffffffffffffffffffffff168173ffffffffffffffffffffffffffffffffffffffff1614155b8015613fd857503073ffffffffffffffffffffffffffffffffffffffff168173ffffffffffffffffffffffffffffffffffffffff1614155b61404a576040517f08c379a00000000000000000000000000000000000000000000000000000000081526004018080602001828103825260058152602001807f475332303300000000000000000000000000000000000000000000000000000081525060200191505060405180910390fd5b600073ffffffffffffffffffffffffffffffffffffffff16600260008373ffffffffffffffffffffffffffffffffffffffff1673ffffffffffffffffffffffffffffffffffffffff16815260200190815260200160002060009054906101000a900473ffffffffffffffffffffffffffffffffffffffff1673ffffffffffffffffffffffffffffffffffffffff161461414b576040517f08c379a00000000000000000000000000000000000000000000000000000000081526004018080602001828103825260058152602001807f475332303400000000000000000000000000000000000000000000000000000081525060200191505060405180910390fd5b600073ffffffffffffffffffffffffffffffffffffffff168273ffffffffffffffffffffffffffffffffffffffff16141580156141b55750600173ffffffffffffffffffffffffffffffffffffffff168273ffffffffffffffffffffffffffffffffffffffff1614155b614227576040517f08c379a00000000000000000000000000000000000000000000000000000000081526004018080602001828103825260058152602001807f475332303300000000000000000000000000000000000000000000000000000081525060200191505060405180910390fd5b8173ffffffffffffffffffffffffffffffffffffffff16600260008573ffffffffffffffffffffffffffffffffffffffff1673ffffffffffffffffffffffffffffffffffffffff16815260200190815260200160002060009054906101000a900473ffffffffffffffffffffffffffffffffffffffff1673ffffffffffffffffffffffffffffffffffffffff1614614327576040517f08c379a00000000000000000000000000000000000000000000000000000000081526004018080602001828103825260058152602001807f475332303500000000000000000000000000000000000000000000000000000081525060200191505060405180910390fd5b600260008373ffffffffffffffffffffffffffffffffffffffff1673ffffffffffffffffffffffffffffffffffffffff16815260200190815260200160002060009054906101000a900473ffffffffffffffffffffffffffffffffffffffff16600260008373ffffffffffffffffffffffffffffffffffffffff1673ffffffffffffffffffffffffffffffffffffffff16815260200190815260200160002060006101000a81548173ffffffffffffffffffffffffffffffffffffffff021916908373ffffffffffffffffffffffffffffffffffffffff16021790555080600260008573ffffffffffffffffffffffffffffffffffffffff1673ffffffffffffffffffffffffffffffffffffffff16815260200190815260200160002060006101000a81548173ffffffffffffffffffffffffffffffffffffffff021916908373ffffffffffffffffffffffffffffffffffffffff1602179055506000600260008473ffffffffffffffffffffffffffffffffffffffff1673ffffffffffffffffffffffffffffffffffffffff16815260200190815260200160002060006101000a81548173ffffffffffffffffffffffffffffffffffffffff021916908373ffffffffffffffffffffffffffffffffffffffff1602179055507ff8d49fc529812e9a7c5c50e69c20f0dccc0db8fa95c98bc58cc9a4f1c1299eaf82604051808273ffffffffffffffffffffffffffffffffffffffff16815260200191505060405180910390a17f9465fa0c962cc76958e6373a993326400c1c94f8be2fe3a952adfa7f60b2ea2681604051808273ffffffffffffffffffffffffffffffffffffffff16815260200191505060405180910390a1505050565b6000600454905090565b606060007fbb8310d486368db6bd6f849402fdd73ad53d316b5a4b2644ad6efe0f941286d860001b8d8d8d8d60405180838380828437808301925050509250505060405180910390208c8c8c8c8c8c8c604051602001808c81526020018b73ffffffffffffffffffffffffffffffffffffffff1681526020018a815260200189815260200188600181111561463b57fe5b81526020018781526020018681526020018581526020018473ffffffffffffffffffffffffffffffffffffffff1681526020018373ffffffffffffffffffffffffffffffffffffffff1681526020018281526020019b505050505050505050505050604051602081830303815290604052805190602001209050601960f81b600160f81b6146c76147b3565b8360405160200180857effffffffffffffffffffffffffffffffffffffffffffffffffffffffffffff19168152600101847effffffffffffffffffffffffffffffffffffffffffffffffffffffffffffff191681526001018381526020018281526020019450505050506040516020818303038152906040529150509b9a5050505050505050505050565b61475a614c9d565b61476381615941565b7f5ac6c46c93c8d0e53714ba3b53db3e7c046da994313d7ed0d192028bc7c228b081604051808273ffffffffffffffffffffffffffffffffffffffff16815260200191505060405180910390a150565b60007f47e79534a245952e8b16893a336b85a3d9ea9fa8c573f3d803afb92a7946921860001b6147e1612854565b30604051602001808481526020018381526020018273ffffffffffffffffffffffffffffffffffffffff168152602001935050505060405160208183030381529060405280519060200120905090565b614839614c9d565b8060016003540310156148b4576040517f08c379a00000000000000000000000000000000000000000000000000000000081526004018080602001828103825260058152602001807f475332303100000000000000000000000000000000000000000000000000000081525060200191505060405180910390fd5b600073ffffffffffffffffffffffffffffffffffffffff168273ffffffffffffffffffffffffffffffffffffffff161415801561491e5750600173ffffffffffffffffffffffffffffffffffffffff168273ffffffffffffffffffffffffffffffffffffffff1614155b614990576040517f08c379a00000000000000000000000000000000000000000000000000000000081526004018080602001828103825260058152602001807f475332303300000000000000000000000000000000000000000000000000000081525060200191505060405180910390fd5b8173ffffffffffffffffffffffffffffffffffffffff16600260008573ffffffffffffffffffffffffffffffffffffffff1673ffffffffffffffffffffffffffffffffffffffff16815260200190815260200160002060009054906101000a900473ffffffffffffffffffffffffffffffffffffffff1673ffffffffffffffffffffffffffffffffffffffff1614614a90576040517f08c379a00000000000000000000000000000000000000000000000000000000081526004018080602001828103825260058152602001807f475332303500000000000000000000000000000000000000000000000000000081525060200191505060405180910390fd5b600260008373ffffffffffffffffffffffffffffffffffffffff1673ffffffffffffffffffffffffffffffffffffffff16815260200190815260200160002060009054906101000a900473ffffffffffffffffffffffffffffffffffffffff16600260008573ffffffffffffffffffffffffffffffffffffffff1673ffffffffffffffffffffffffffffffffffffffff16815260200190815260200160002060006101000a81548173ffffffffffffffffffffffffffffffffffffffff021916908373ffffffffffffffffffffffffffffffffffffffff1602179055506000600260008473ffffffffffffffffffffffffffffffffffffffff1673ffffffffffffffffffffffffffffffffffffffff16815260200190815260200160002060006101000a81548173ffffffffffffffffffffffffffffffffffffffff021916908373ffffffffffffffffffffffffffffffffffffffff160217905550600360008154809291906001900391905055507ff8d49fc529812e9a7c5c50e69c20f0dccc0db8fa95c98bc58cc9a4f1c1299eaf82604051808273ffffffffffffffffffffffffffffffffffffffff16815260200191505060405180910390a18060045414614c5f57614c5e81612dd3565b5b505050565b6040518060400160405280600581526020017f312e332e3000000000000000000000000000000000000000000000000000000081525081565b3073ffffffffffffffffffffffffffffffffffffffff163373ffffffffffffffffffffffffffffffffffffffff1614614d3e576040517f08c379a00000000000000000000000000000000000000000000000000000000081526004018080602001828103825260058152602001807f475330333100000000000000000000000000000000000000000000000000000081525060200191505060405180910390fd5b565b600080831415614d535760009050614d74565b6000828402905082848281614d6457fe5b0414614d6f57600080fd5b809150505b92915050565b60008060008360410260208101860151925060408101860151915060ff60418201870151169350509250925092565b600080828401905083811015614dbe57600080fd5b8091505092915050565b6000600173ffffffffffffffffffffffffffffffffffffffff163373ffffffffffffffffffffffffffffffffffffffff1614158015614e935750600073ffffffffffffffffffffffffffffffffffffffff16600160003373ffffffffffffffffffffffffffffffffffffffff1673ffffffffffffffffffffffffffffffffffffffff16815260200190815260200160002060009054906101000a900473ffffffffffffffffffffffffffffffffffffffff1673ffffffffffffffffffffffffffffffffffffffff1614155b614f05576040517f08c379a00000000000000000000000000000000000000000000000000000000081526004018080602001828103825260058152602001807f475331303400000000000000000000000000000000000000000000000000000081525060200191505060405180910390fd5b614f12858585855a615db1565b90508015614f62573373ffffffffffffffffffffffffffffffffffffffff167f6895c13664aa4f67288b25d7a21d7aaa34916e355fb9b6fae0a139a9085becb860405160405180910390a2614fa6565b3373ffffffffffffffffffffffffffffffffffffffff167facd2c8702804128fdb0db2bb49f6d127dd0181c13fd45dbfe16de0930e2bd37560405160405180910390a25b949350505050565b6000806000614fc88e8e8e8e8e8e8e8e8e8e6005546145aa565b905060056000815480929190600101919050555080805190602001209150614ff1828286613215565b506000614ffc615dfd565b9050600073ffffffffffffffffffffffffffffffffffffffff168173ffffffffffffffffffffffffffffffffffffffff16146151e2578073ffffffffffffffffffffffffffffffffffffffff166375f0bb528f8f8f8f8f8f8f8f8f8f8f336040518d63ffffffff1660e01b8152600401808d73ffffffffffffffffffffffffffffffffffffffff1681526020018c8152602001806020018a600181111561509f57fe5b81526020018981526020018881526020018781526020018673ffffffffffffffffffffffffffffffffffffffff1681526020018573ffffffffffffffffffffffffffffffffffffffff168152602001806020018473ffffffffffffffffffffffffffffffffffffffff16815260200183810383528d8d82818152602001925080828437600081840152601f19601f820116905080830192505050838103825285818151815260200191508051906020019080838360005b83811015615171578082015181840152602081019050615156565b50505050905090810190601f16801561519e5780820380516001836020036101000a031916815260200191505b509e505050505050505050505050505050600060405180830381600087803b1580156151c957600080fd5b505af11580156151dd573d6000803e3d6000fd5b505050505b506101f461520a6109c48a01603f60408c02816151fb57fe5b04615e2e90919063ffffffff16565b015a1015615280576040517f08c379a00000000000000000000000000000000000000000000000000000000081526004018080602001828103825260058152602001807f475330313000000000000000000000000000000000000000000000000000000081525060200191505060405180910390fd5b60005a90506152e98e8e8e8e8080601f016020809104026020016040519081016040528093929190818152602001838380828437600081840152601f19601f820116905080830192505050505050508d60008c146152de578d6152e4565b6109c45a035b615db1565b92506152fe5a82615e4890919063ffffffff16565b9050828061530d575060008914155b80615319575060008714155b61538b576040517f08c379a00000000000000000000000000000000000000000000000000000000081526004018080602001828103825260058152602001807f475330313300000000000000000000000000000000000000000000000000000081525060200191505060405180910390fd5b6000808811156153a5576153a2828a8a8a8a615bab565b90505b83156153ef577f442e715f626346e8c54381002da614f62bee8d27386535b2521ec8540898556e8382604051808381526020018281526020019250505060405180910390a161542f565b7f23428b18acfb3ea64b08dc0c1d296ea9c09702c09083ca5272e64d115b687d238382604051808381526020018281526020019250505060405180910390a15b5050509b9a5050505050505050505050565b6000600454146154b9576040517f08c379a00000000000000000000000000000000000000000000000000000000081526004018080602001828103825260058152602001807f475332303000000000000000000000000000000000000000000000000000000081525060200191505060405180910390fd5b8151811115615530576040517f08c379a00000000000000000000000000000000000000000000000000000000081526004018080602001828103825260058152602001807f475332303100000000000000000000000000000000000000000000000000000081525060200191505060405180910390fd5b60018110156155a7576040517f08c379a00000000000000000000000000000000000000000000000000000000081526004018080602001828103825260058152602001807f475332303200000000000000000000000000000000000000000000000000000081525060200191505060405180910390fd5b60006001905060005b83518110156158ad5760008482815181106155c757fe5b60200260200101519050600073ffffffffffffffffffffffffffffffffffffffff168173ffffffffffffffffffffffffffffffffffffffff161415801561563b5750600173ffffffffffffffffffffffffffffffffffffffff168173ffffffffffffffffffffffffffffffffffffffff1614155b801561567357503073ffffffffffffffffffffffffffffffffffffffff168173ffffffffffffffffffffffffffffffffffffffff1614155b80156156ab57508073ffffffffffffffffffffffffffffffffffffffff168373ffffffffffffffffffffffffffffffffffffffff1614155b61571d576040517f08c379a00000000000000000000000000000000000000000000000000000000081526004018080602001828103825260058152602001807f475332303300000000000000000000000000000000000000000000000000000081525060200191505060405180910390fd5b600073ffffffffffffffffffffffffffffffffffffffff16600260008373ffffffffffffffffffffffffffffffffffffffff1673ffffffffffffffffffffffffffffffffffffffff16815260200190815260200160002060009054906101000a900473ffffffffffffffffffffffffffffffffffffffff1673ffffffffffffffffffffffffffffffffffffffff161461581e576040517f08c379a00000000000000000000000000000000000000000000000000000000081526004018080602001828103825260058152602001807f475332303400000000000000000000000000000000000000000000000000000081525060200191505060405180910390fd5b80600260008573ffffffffffffffffffffffffffffffffffffffff1673ffffffffffffffffffffffffffffffffffffffff16815260200190815260200160002060006101000a81548173ffffffffffffffffffffffffffffffffffffffff021916908373ffffffffffffffffffffffffffffffffffffffff1602179055508092505080806001019150506155b0565b506001600260008373ffffffffffffffffffffffffffffffffffffffff1673ffffffffffffffffffffffffffffffffffffffff16815260200190815260200160002060006101000a81548173ffffffffffffffffffffffffffffffffffffffff021916908373ffffffffffffffffffffffffffffffffffffffff160217905550825160038190555081600481905550505050565b60007f6c9a6c4a39284e37ed1cf53d337577d14212a4870fb976a4366c693b939918d560001b90508181555050565b600073ffffffffffffffffffffffffffffffffffffffff1660016000600173ffffffffffffffffffffffffffffffffffffffff1673ffffffffffffffffffffffffffffffffffffffff16815260200190815260200160002060009054906101000a900473ffffffffffffffffffffffffffffffffffffffff1673ffffffffffffffffffffffffffffffffffffffff1614615a72576040517f08c379a00000000000000000000000000000000000000000000000000000000081526004018080602001828103825260058152602001807f475331303000000000000000000000000000000000000000000000000000000081525060200191505060405180910390fd5b6001806000600173ffffffffffffffffffffffffffffffffffffffff1673ffffffffffffffffffffffffffffffffffffffff16815260200190815260200160002060006101000a81548173ffffffffffffffffffffffffffffffffffffffff021916908373ffffffffffffffffffffffffffffffffffffffff160217905550600073ffffffffffffffffffffffffffffffffffffffff168273ffffffffffffffffffffffffffffffffffffffff1614615ba757615b348260008360015a615db1565b615ba6576040517f08c379a00000000000000000000000000000000000000000000000000000000081526004018080602001828103825260058152602001807f475330303000000000000000000000000000000000000000000000000000000081525060200191505060405180910390fd5b5b5050565b600080600073ffffffffffffffffffffffffffffffffffffffff168373ffffffffffffffffffffffffffffffffffffffff1614615be85782615bea565b325b9050600073ffffffffffffffffffffffffffffffffffffffff168473ffffffffffffffffffffffffffffffffffffffff161415615d0257615c543a8610615c31573a615c33565b855b615c46888a614da990919063ffffffff16565b614d4090919063ffffffff16565b91508073ffffffffffffffffffffffffffffffffffffffff166108fc839081150290604051600060405180830381858888f19350505050615cfd576040517f08c379a00000000000000000000000000000000000000000000000000000000081526004018080602001828103825260058152602001807f475330313100000000000000000000000000000000000000000000000000000081525060200191505060405180910390fd5b615da7565b615d2785615d19888a614da990919063ffffffff16565b614d4090919063ffffffff16565b9150615d34848284615e68565b615da6576040517f08c379a00000000000000000000000000000000000000000000000000000000081526004018080602001828103825260058152602001807f475330313200000000000000000000000000000000000000000000000000000081525060200191505060405180910390fd5b5b5095945050505050565b6000600180811115615dbf57fe5b836001811115615dcb57fe5b1415615de4576000808551602087018986f49050615df4565b600080855160208701888a87f190505b95945050505050565b6000807f4a204f620c8c5ccdca3fd54d003badd85ba500436a431f0cbda4f558c93c34c860001b9050805491505090565b600081831015615e3e5781615e40565b825b905092915050565b600082821115615e5757600080fd5b600082840390508091505092915050565b60008063a9059cbb8484604051602401808373ffffffffffffffffffffffffffffffffffffffff168152602001828152602001925050506040516020818303038152906040529060e01b6020820180517bffffffffffffffffffffffffffffffffffffffffffffffffffffffff83818316178352505050509050602060008251602084016000896127105a03f13d60008114615f0f5760208114615f175760009350615f22565b819350615f22565b600051158215171593505b505050939250505056fea26469706673582212201626cf01be22a899e6f136e8877b04e8217b963c12508420280eb5a8dfe10fec64736f6c63430007060033",
  "deployedBytecode": "608060405234801561001057600080fd5b50600080546001600160a01b03191633179055614c58806100326000396000f3fe60806040523480156200001157600080fd5b5060043610620001c05760003560e01c8063399b2fb911620000f95780639f4713031162000099578063f39c38a0116200006f578063f39c38a01462000417578063fe54cee61462000438578063ffb0a4a0146200044f57620001c0565b80639f47130314620003d2578063ab033ea914620003e9578063ac835592146200040057620001c0565b80635aa6e67511620000cf5780635aa6e6751462000390578063740c25a214620003b157806380bb2bac14620003c857620001c0565b8063399b2fb914620003585780634c96a389146200036257806350d4d866146200037957620001c0565b8063273c9d721162000165578063322e9f04116200013b578063322e9f04146200031157806336df7ea5146200031b578063376346de146200033257620001c0565b8063273c9d7214620002aa5780632fba4aa914620002c157806331ff3e9f14620002fa57620001c0565b80631c1b8772116200019b5780631c1b8772146200024b578063238efcbc146200027357806323c87faf146200027d57620001c0565b806305e0b9a014620001c5578063122ba6d1146200020b57806317bf72c61462000232575b600080fd5b620001e1731ceb5cb57c4d4e2b2433641b95dd330a33185a4481565b60405173ffffffffffffffffffffffffffffffffffffffff90911681526020015b60405180910390f35b620002226200021c366004620025e4565b62000468565b6040516200020292919062002865565b620002496200024336600462002780565b62000598565b005b620002626200025c366004620023b8565b620006a3565b604051901515815260200162000202565b620002496200086c565b620002946200028e3660046200257f565b62000938565b6040805192835260208301919091520162000202565b62000294620002bb366004620023de565b62000a3d565b620001e1620002d2366004620023b8565b60036020526000908152604090205473ffffffffffffffffffffffffffffffffffffffff1681565b620002946200030b36600462002531565b62000b11565b6200024962000c0e565b620002496200032c366004620023b8565b6200107a565b6200034962000343366004620023b8565b6200146b565b604051620002029190620028af565b6200024962001523565b620001e162000373366004620023b8565b62001752565b620002226200038a36600462002498565b62001a2a565b600054620001e19073ffffffffffffffffffffffffffffffffffffffff1681565b62000249620003c2366004620023b8565b62001b32565b6200026262001cee565b62000262620003e3366004620023b8565b62001e20565b62000249620003fa366004620023b8565b62001eae565b620002496200041136600462002503565b62001f78565b600154620001e19073ffffffffffffffffffffffffffffffffffffffff1681565b620002946200044936600462002437565b62001fdf565b62000459620020bb565b60405162000202919062002809565b60606000808362000485576200047f89886200212c565b62000491565b62000491898862002288565b73ffffffffffffffffffffffffffffffffffffffff818116600090815260036020526040908190205490517f0a7933980000000000000000000000000000000000000000000000000000000081528c83166004820152602481018c90528a83166044820152606481018a9052608481018990529293501690630a7933989060a40160006040518083038186803b1580156200052b57600080fd5b505afa15801562000540573d6000803e3d6000fd5b505050506040513d6000823e601f3d9081017fffffffffffffffffffffffffffffffffffffffffffffffffffffffffffffffe016820160405262000588919081019062002651565b9250925050965096945050505050565b60005b6002548110156200069f576003600060028381548110620005e5577f4e487b7100000000000000000000000000000000000000000000000000000000600052603260045260246000fd5b60009182526020808320919091015473ffffffffffffffffffffffffffffffffffffffff908116845290830193909352604091820190205490517f17bf72c6000000000000000000000000000000000000000000000000000000008152600481018590529116906317bf72c690602401600060405180830381600087803b1580156200067057600080fd5b505af115801562000685573d6000803e3d6000fd5b50505050808062000696906200294f565b9150506200059b565b5050565b6040517f3bbd64bc000000000000000000000000000000000000000000000000000000008152336004820152600090731ceb5cb57c4d4e2b2433641b95dd330a33185a4490633bbd64bc90602401602060405180830381600087803b1580156200070c57600080fd5b505af115801562000721573d6000803e3d6000fd5b505050506040513d601f19601f8201168201806040525081019062000747919062002742565b620007b3576040517f08c379a000000000000000000000000000000000000000000000000000000000815260206004820152600260248201527f214b00000000000000000000000000000000000000000000000000000000000060448201526064015b60405180910390fd5b73ffffffffffffffffffffffffffffffffffffffff80831660009081526003602090815260408083205481517fa2e62045000000000000000000000000000000000000000000000000000000008152915194169363a2e6204593600480840194938390030190829087803b1580156200082b57600080fd5b505af115801562000840573d6000803e3d6000fd5b505050506040513d601f19601f8201168201806040525081019062000866919062002742565b92915050565b60015473ffffffffffffffffffffffffffffffffffffffff163314620008ef576040517f08c379a000000000000000000000000000000000000000000000000000000000815260206004820152600360248201527f21704700000000000000000000000000000000000000000000000000000000006044820152606401620007aa565b600154600080547fffffffffffffffffffffffff00000000000000000000000000000000000000001673ffffffffffffffffffffffffffffffffffffffff909216919091179055565b60008060008362000955576200094f88876200212c565b62000961565b62000961888762002288565b73ffffffffffffffffffffffffffffffffffffffff818116600090815260036020526040908190205490517fae6ec9b70000000000000000000000000000000000000000000000000000000081528b83166004820152602481018b9052898316604482015260648101899052929350169063ae6ec9b790608401604080518083038186803b158015620009f357600080fd5b505afa15801562000a08573d6000803e3d6000fd5b505050506040513d601f19601f8201168201806040525081019062000a2e9190620027b2565b92509250509550959350505050565b73ffffffffffffffffffffffffffffffffffffffff8481166000908152600360205260408082205490517fa75d39c200000000000000000000000000000000000000000000000000000000815286841660048201526024810186905284841660448201529192839291169063a75d39c290606401604080518083038186803b15801562000ac957600080fd5b505afa15801562000ade573d6000803e3d6000fd5b505050506040513d601f19601f8201168201806040525081019062000b049190620027b2565b9150915094509492505050565b60008060008362000b2e5762000b2887866200212c565b62000b3a565b62000b3a878662002288565b73ffffffffffffffffffffffffffffffffffffffff818116600090815260036020526040908190205490517fa75d39c20000000000000000000000000000000000000000000000000000000081528a83166004820152602481018a90528883166044820152929350169063a75d39c290606401604080518083038186803b15801562000bc557600080fd5b505afa15801562000bda573d6000803e3d6000fd5b505050506040513d601f19601f8201168201806040525081019062000c009190620027b2565b925092505094509492505050565b60005a6040517f3bbd64bc000000000000000000000000000000000000000000000000000000008152336004820152909150731ceb5cb57c4d4e2b2433641b95dd330a33185a4490633bbd64bc90602401602060405180830381600087803b15801562000c7a57600080fd5b505af115801562000c8f573d6000803e3d6000fd5b505050506040513d601f19601f8201168201806040525081019062000cb5919062002742565b62000d1d576040517f08c379a000000000000000000000000000000000000000000000000000000000815260206004820152600260248201527f214b0000000000000000000000000000000000000000000000000000000000006044820152606401620007aa565b62000d2762001cee565b62000d8f576040517f08c379a000000000000000000000000000000000000000000000000000000000815260206004820152600260248201527f21570000000000000000000000000000000000000000000000000000000000006044820152606401620007aa565b60005b60025481101562000eb257600360006002838154811062000ddc577f4e487b7100000000000000000000000000000000000000000000000000000000600052603260045260246000fd5b600091825260208083209091015473ffffffffffffffffffffffffffffffffffffffff908116845283820194909452604092830182205483517fa2e62045000000000000000000000000000000000000000000000000000000008152935194169363a2e6204593600480820194918390030190829087803b15801562000e6157600080fd5b505af115801562000e76573d6000803e3d6000fd5b505050506040513d601f19601f8201168201806040525081019062000e9c919062002742565b508062000ea9816200294f565b91505062000d92565b506000731ceb5cb57c4d4e2b2433641b95dd330a33185a4473ffffffffffffffffffffffffffffffffffffffff166309aff02b6040518163ffffffff1660e01b815260040160206040518083038186803b15801562000f1057600080fd5b505afa15801562000f25573d6000803e3d6000fd5b505050506040513d601f19601f8201168201806040525081019062000f4b919062002761565b73ffffffffffffffffffffffffffffffffffffffff1663525ea6315a62000f73908562002902565b6040518263ffffffff1660e01b815260040162000f9291815260200190565b60206040518083038186803b15801562000fab57600080fd5b505afa15801562000fc0573d6000803e3d6000fd5b505050506040513d601f19601f8201168201806040525081019062000fe6919062002799565b6040517f8d9acd2e000000000000000000000000000000000000000000000000000000008152731ceb5cb57c4d4e2b2433641b95dd330a33185a446004820181905233602483015260448201839052919250638d9acd2e906064015b600060405180830381600087803b1580156200105d57600080fd5b505af115801562001072573d6000803e3d6000fd5b505050505050565b60005a6040517f3bbd64bc000000000000000000000000000000000000000000000000000000008152336004820152909150731ceb5cb57c4d4e2b2433641b95dd330a33185a4490633bbd64bc90602401602060405180830381600087803b158015620010e657600080fd5b505af1158015620010fb573d6000803e3d6000fd5b505050506040513d601f19601f8201168201806040525081019062001121919062002742565b62001189576040517f08c379a000000000000000000000000000000000000000000000000000000000815260206004820152600260248201527f214b0000000000000000000000000000000000000000000000000000000000006044820152606401620007aa565b73ffffffffffffffffffffffffffffffffffffffff80831660009081526003602090815260408083205481517fa2e62045000000000000000000000000000000000000000000000000000000008152915194169363a2e6204593600480840194938390030190829087803b1580156200120157600080fd5b505af115801562001216573d6000803e3d6000fd5b505050506040513d601f19601f820116820180604052508101906200123c919062002742565b620012a4576040517f08c379a000000000000000000000000000000000000000000000000000000000815260206004820152600260248201527f21570000000000000000000000000000000000000000000000000000000000006044820152606401620007aa565b6000731ceb5cb57c4d4e2b2433641b95dd330a33185a4473ffffffffffffffffffffffffffffffffffffffff166309aff02b6040518163ffffffff1660e01b815260040160206040518083038186803b1580156200130157600080fd5b505afa15801562001316573d6000803e3d6000fd5b505050506040513d601f19601f820116820180604052508101906200133c919062002761565b73ffffffffffffffffffffffffffffffffffffffff1663525ea6315a62001364908562002902565b6040518263ffffffff1660e01b81526004016200138391815260200190565b60206040518083038186803b1580156200139c57600080fd5b505afa158015620013b1573d6000803e3d6000fd5b505050506040513d601f19601f82011682018060405250810190620013d7919062002799565b6040517f8d9acd2e000000000000000000000000000000000000000000000000000000008152731ceb5cb57c4d4e2b2433641b95dd330a33185a446004820181905233602483015260448201839052919250638d9acd2e90606401600060405180830381600087803b1580156200144d57600080fd5b505af115801562001462573d6000803e3d6000fd5b50505050505050565b6060604051806020016200147f90620023aa565b7fffffffffffffffffffffffffffffffffffffffffffffffffffffffffffffffe082820381018352601f90910116604081815273ffffffffffffffffffffffffffffffffffffffff8516602083015201604080517fffffffffffffffffffffffffffffffffffffffffffffffffffffffffffffffe0818403018152908290526200150d9291602001620027d6565b6040516020818303038152906040529050919050565b6040517f3bbd64bc000000000000000000000000000000000000000000000000000000008152336004820152731ceb5cb57c4d4e2b2433641b95dd330a33185a4490633bbd64bc90602401602060405180830381600087803b1580156200158957600080fd5b505af11580156200159e573d6000803e3d6000fd5b505050506040513d601f19601f82011682018060405250810190620015c4919062002742565b6200162c576040517f08c379a000000000000000000000000000000000000000000000000000000000815260206004820152600260248201527f214b0000000000000000000000000000000000000000000000000000000000006044820152606401620007aa565b60005b6002548110156200174f57600360006002838154811062001679577f4e487b7100000000000000000000000000000000000000000000000000000000600052603260045260246000fd5b600091825260208083209091015473ffffffffffffffffffffffffffffffffffffffff908116845283820194909452604092830182205483517fa2e62045000000000000000000000000000000000000000000000000000000008152935194169363a2e6204593600480820194918390030190829087803b158015620016fe57600080fd5b505af115801562001713573d6000803e3d6000fd5b505050506040513d601f19601f8201168201806040525081019062001739919062002742565b508062001746816200294f565b9150506200162f565b50565b6000805473ffffffffffffffffffffffffffffffffffffffff163314620017d6576040517f08c379a000000000000000000000000000000000000000000000000000000000815260206004820152600260248201527f21470000000000000000000000000000000000000000000000000000000000006044820152606401620007aa565b73ffffffffffffffffffffffffffffffffffffffff828116600090815260036020526040902054161562001867576040517f08c379a000000000000000000000000000000000000000000000000000000000815260206004820152600260248201527f50450000000000000000000000000000000000000000000000000000000000006044820152606401620007aa565b6000604051806020016200187b90620023aa565b7fffffffffffffffffffffffffffffffffffffffffffffffffffffffffffffffe082820381018352601f90910116604081815273ffffffffffffffffffffffffffffffffffffffff8616602083015201604080517fffffffffffffffffffffffffffffffffffffffffffffffffffffffffffffffe081840301815290829052620019099291602001620027d6565b604080517fffffffffffffffffffffffffffffffffffffffffffffffffffffffffffffffe0818403018152908290527fffffffffffffffffffffffffffffffffffffffff000000000000000000000000606086901b1660208301529150600090603401604051602081830303815290604052805190602001209050808251602084016000f59250823b6200199c57600080fd5b505073ffffffffffffffffffffffffffffffffffffffff918216600081815260036020526040812080549484167fffffffffffffffffffffffff00000000000000000000000000000000000000009586161790556002805460018101825591527f405787fa12a823e0f2b7631cc41b3ba8828b3321ca811111fa75cd3aa3bb5ace0180549093161790915590565b73ffffffffffffffffffffffffffffffffffffffff8681166000908152600360205260408082205490517f0a793398000000000000000000000000000000000000000000000000000000008152888416600482015260248101889052868416604482015260648101869052608481018590526060939190911690630a7933989060a40160006040518083038186803b15801562001ac657600080fd5b505afa15801562001adb573d6000803e3d6000fd5b505050506040513d6000823e601f3d9081017fffffffffffffffffffffffffffffffffffffffffffffffffffffffffffffffe016820160405262001b23919081019062002651565b91509150965096945050505050565b6040517f3bbd64bc000000000000000000000000000000000000000000000000000000008152336004820152731ceb5cb57c4d4e2b2433641b95dd330a33185a4490633bbd64bc90602401602060405180830381600087803b15801562001b9857600080fd5b505af115801562001bad573d6000803e3d6000fd5b505050506040513d601f19601f8201168201806040525081019062001bd3919062002742565b62001c3b576040517f08c379a000000000000000000000000000000000000000000000000000000000815260206004820152600260248201527f214b0000000000000000000000000000000000000000000000000000000000006044820152606401620007aa565b73ffffffffffffffffffffffffffffffffffffffff80821660009081526003602090815260408083205481517fa2e62045000000000000000000000000000000000000000000000000000000008152915194169363a2e6204593600480840194938390030190829087803b15801562001cb357600080fd5b505af115801562001cc8573d6000803e3d6000fd5b505050506040513d601f19601f820116820180604052508101906200069f919062002742565b600160005b60025481101562001e1c57600360006002838154811062001d3d577f4e487b7100000000000000000000000000000000000000000000000000000000600052603260045260246000fd5b600091825260208083209091015473ffffffffffffffffffffffffffffffffffffffff90811684528382019490945260409283019091205482517f983586d9000000000000000000000000000000000000000000000000000000008152925193169263983586d9926004808201939291829003018186803b15801562001dc257600080fd5b505afa15801562001dd7573d6000803e3d6000fd5b505050506040513d601f19601f8201168201806040525081019062001dfd919062002742565b62001e0757600091505b8062001e13816200294f565b91505062001cf3565b5090565b73ffffffffffffffffffffffffffffffffffffffff80821660009081526003602090815260408083205481517f983586d900000000000000000000000000000000000000000000000000000000815291519394169263983586d992600480840193919291829003018186803b15801562001e9957600080fd5b505afa15801562000840573d6000803e3d6000fd5b60005473ffffffffffffffffffffffffffffffffffffffff16331462001f31576040517f08c379a000000000000000000000000000000000000000000000000000000000815260206004820152600260248201527f21470000000000000000000000000000000000000000000000000000000000006044820152606401620007aa565b600180547fffffffffffffffffffffffff00000000000000000000000000000000000000001673ffffffffffffffffffffffffffffffffffffffff92909216919091179055565b73ffffffffffffffffffffffffffffffffffffffff828116600090815260036020526040908190205490517f17bf72c6000000000000000000000000000000000000000000000000000000008152600481018490529116906317bf72c69060240162001042565b73ffffffffffffffffffffffffffffffffffffffff8581166000908152600360205260408082205490517fae6ec9b70000000000000000000000000000000000000000000000000000000081528784166004820152602481018790528584166044820152606481018590529192839291169063ae6ec9b790608401604080518083038186803b1580156200207257600080fd5b505afa15801562002087573d6000803e3d6000fd5b505050506040513d601f19601f82011682018060405250810190620020ad9190620027b2565b915091509550959350505050565b606060028054806020026020016040519081016040528092919081815260200182805480156200212257602002820191906000526020600020905b815473ffffffffffffffffffffffffffffffffffffffff168152600190910190602001808311620020f6575b5050505050905090565b60008060008373ffffffffffffffffffffffffffffffffffffffff168573ffffffffffffffffffffffffffffffffffffffff16106200216d57838562002170565b84845b60408051606084811b7fffffffffffffffffffffffffffffffffffffffff0000000000000000000000009081166020808501919091529185901b166034830152825160288184030181526048830190935282519201919091207fff0000000000000000000000000000000000000000000000000000000000000060688301527f5c69bee701ef814a2b6a3edd4b1652cb9cc5aa6f0000000000000000000000006069830152607d8201527f96e8ac4277198ff8b6f785478aa9a39f403cb768dd02cbee326c3e7da348845f609d820152919350915060bd015b604080517fffffffffffffffffffffffffffffffffffffffffffffffffffffffffffffffe0818403018152919052805160209091012095945050505050565b60008060008373ffffffffffffffffffffffffffffffffffffffff168573ffffffffffffffffffffffffffffffffffffffff1610620022c9578385620022cc565b84845b60408051606084811b7fffffffffffffffffffffffffffffffffffffffff0000000000000000000000009081166020808501919091529185901b166034830152825160288184030181526048830190935282519201919091207fff0000000000000000000000000000000000000000000000000000000000000060688301527fc35dadb65012ec5796536bd9864ed8773abc74c40000000000000000000000006069830152607d8201527fe18a34eb0e04b04f7a0ac29a6e80748dca96319b42c54d679cb821dca90c6303609d820152919350915060bd0162002249565b6122078062002a1c83390190565b600060208284031215620023ca578081fd5b8135620023d781620029e9565b9392505050565b60008060008060808587031215620023f4578283fd5b84356200240181620029e9565b935060208501356200241381620029e9565b92506040850135915060608501356200242c81620029e9565b939692955090935050565b600080600080600060a086880312156200244f578081fd5b85356200245c81620029e9565b945060208601356200246e81620029e9565b93506040860135925060608601356200248781620029e9565b949793965091946080013592915050565b60008060008060008060c08789031215620024b1578081fd5b8635620024be81620029e9565b95506020870135620024d081620029e9565b9450604087013593506060870135620024e981620029e9565b9598949750929560808101359460a0909101359350915050565b6000806040838503121562002516578182fd5b82356200252381620029e9565b946020939093013593505050565b6000806000806080858703121562002547578384fd5b84356200255481620029e9565b93506020850135925060408501356200256d81620029e9565b915060608501356200242c8162002a0c565b600080600080600060a0868803121562002597578081fd5b8535620025a481620029e9565b9450602086013593506040860135620025bd81620029e9565b9250606086013591506080860135620025d68162002a0c565b809150509295509295909350565b60008060008060008060c08789031215620025fd578182fd5b86356200260a81620029e9565b95506020870135945060408701356200262381620029e9565b9350606087013592506080870135915060a0870135620026438162002a0c565b809150509295509295509295565b6000806040838503121562002664578182fd5b825167ffffffffffffffff808211156200267c578384fd5b818501915085601f83011262002690578384fd5b8151602082821115620026a757620026a7620029ba565b8082026040517fffffffffffffffffffffffffffffffffffffffffffffffffffffffffffffffe0603f83011681018181108682111715620026ec57620026ec620029ba565b604052838152828101945085830182870184018b10156200270b578889fd5b8896505b848710156200272f5780518652600196909601959483019483016200270f565b5097909101519698969750505050505050565b60006020828403121562002754578081fd5b8151620023d78162002a0c565b60006020828403121562002773578081fd5b8151620023d781620029e9565b60006020828403121562002792578081fd5b5035919050565b600060208284031215620027ab578081fd5b5051919050565b60008060408385031215620027c5578182fd5b505080516020909101519092909150565b60008351620027ea8184602088016200291c565b835190830190620028008183602088016200291c565b01949350505050565b6020808252825182820181905260009190848201906040850190845b818110156200285957835173ffffffffffffffffffffffffffffffffffffffff168352928401929184019160010162002825565b50909695505050505050565b604080825283519082018190526000906020906060840190828701845b82811015620028a05781518452928401929084019060010162002882565b50505092019290925292915050565b6000602082528251806020840152620028d08160408501602087016200291c565b601f017fffffffffffffffffffffffffffffffffffffffffffffffffffffffffffffffe0169190910160400192915050565b6000828210156200291757620029176200298b565b500390565b60005b83811015620029395781810151838201526020016200291f565b8381111562002949576000848401525b50505050565b60007fffffffffffffffffffffffffffffffffffffffffffffffffffffffffffffffff8214156200298457620029846200298b565b5060010190565b7f4e487b7100000000000000000000000000000000000000000000000000000000600052601160045260246000fd5b7f4e487b7100000000000000000000000000000000000000000000000000000000600052604160045260246000fd5b73ffffffffffffffffffffffffffffffffffffffff811681146200174f57600080fd5b80151581146200174f57600080fdfe60c0604052600160701b6201000055670de0b6b3a764000062010001553480156200002957600080fd5b5060405162002207380380620022078339810160408190526200004c9162000326565b33606090811b6080526001600160601b031982821b1660a05260408051630240bc6b60e21b815290516000926001600160a01b03851692630902f1ac9260048083019392829003018186803b158015620000a557600080fd5b505afa158015620000ba573d6000803e3d6000fd5b505050506040513d601f19601f82011682018060405250810190620000e0919062000356565b92505050600062010000546201000154846001600160a01b0316635909c0d56040518163ffffffff1660e01b815260040160206040518083038186803b1580156200012a57600080fd5b505afa1580156200013f573d6000803e3d6000fd5b505050506040513d601f19601f82011682018060405250810190620001659190620003aa565b620001719190620003e4565b6200017d9190620003c3565b9050600062010000546201000154856001600160a01b0316635a3d54936040518163ffffffff1660e01b815260040160206040518083038186803b158015620001c557600080fd5b505afa158015620001da573d6000803e3d6000fd5b505050506040513d601f19601f82011682018060405250810190620002009190620003aa565b6200020c9190620003e4565b620002189190620003c3565b6040805160608101825263ffffffff861681526001600160701b03808616602083015283169181019190915261ffff805492935090916000919081169082620002618362000406565b91906101000a81548161ffff021916908361ffff16021790555061ffff1661ffff81106200029f57634e487b7160e01b600052603260045260246000fd5b825191018054602084015160409094015163ffffffff1990911663ffffffff90931692909217600160201b600160901b0319166401000000006001600160701b0394851602176001600160901b0316600160901b9390921692909202179055506200044192505050565b80516001600160701b03811681146200032157600080fd5b919050565b60006020828403121562000338578081fd5b81516001600160a01b03811681146200034f578182fd5b9392505050565b6000806000606084860312156200036b578182fd5b620003768462000309565b9250620003866020850162000309565b9150604084015163ffffffff811681146200039f578182fd5b809150509250925092565b600060208284031215620003bc578081fd5b5051919050565b600082620003df57634e487b7160e01b81526012600452602481fd5b500490565b60008160001904831182151516156200040157620004016200042b565b500290565b600061ffff808316818114156200042157620004216200042b565b6001019392505050565b634e487b7160e01b600052601160045260246000fd5b60805160601c60a05160601c611d54620004b36000396000818161019a01528181610509015281816107eb01528181610a9e01528181610d3501528181610dd401528181610e8a0152818161145b0152818161164b015281816116fa01526117ba01526000610b5c0152611d546000f3fe608060405234801561001057600080fd5b50600436106100a35760003560e01c8063983586d911610076578063a75d39c21161005b578063a75d39c21461016d578063a8aa1b3114610195578063ae6ec9b7146101e1576100a3565b8063983586d91461014d578063a2e6204514610165576100a3565b80630a793398146100a857806317bf72c6146100d25780631f7b6d32146100e7578063252c09d714610107575b600080fd5b6100bb6100b6366004611a9c565b6101f4565b6040516100c9929190611b67565b60405180910390f35b6100e56100e0366004611b37565b6108b4565b005b61ffff80546100f4911681565b60405161ffff90911681526020016100c9565b61011a610115366004611b37565b610962565b6040805163ffffffff90941684526dffffffffffffffffffffffffffff92831660208501529116908201526060016100c9565b6101556109b2565b60405190151581526020016100c9565b610155610b42565b61018061017b366004611a1e565b610bf4565b604080519283526020830191909152016100c9565b6101bc7f000000000000000000000000000000000000000000000000000000000000000081565b60405173ffffffffffffffffffffffffffffffffffffffff90911681526020016100c9565b6101806101ef366004611a59565b61109f565b60606000808573ffffffffffffffffffffffffffffffffffffffff168873ffffffffffffffffffffffffffffffffffffffff1610610233578588610236565b87865b5090508467ffffffffffffffff811115610279577f4e487b7100000000000000000000000000000000000000000000000000000000600052604160045260246000fd5b6040519080825280602002602001820160405280156102a2578160200160208202803683370190505b5092508773ffffffffffffffffffffffffffffffffffffffff168173ffffffffffffffffffffffffffffffffffffffff1614156105cb5761ffff80546000916102ee9160019116611c3d565b61ffff16905060006103008688611c00565b61030a9083611c60565b60408051606081018252600080825260208201819052918101829052919250905b838310156105055760408051606081018252600080825260208201819052918101829052908461ffff8110610389577f4e487b7100000000000000000000000000000000000000000000000000000000600052603260045260246000fd5b60408051606081018252929091015463ffffffff811683526dffffffffffffffffffffffffffff64010000000082048116602085015272010000000000000000000000000000000000009091041690820152905060006103e98a86611baf565b61ffff8110610421577f4e487b7100000000000000000000000000000000000000000000000000000000600052603260045260246000fd5b60408051606081018252929091015463ffffffff81168084526dffffffffffffffffffffffffffff64010000000083048116602080870182905272010000000000000000000000000000000000009094048216948601949094529185015185519496506104a1949216929161049591611c77565b63ffffffff168f611524565b8884815181106104da577f4e487b7100000000000000000000000000000000000000000000000000000000600052603260045260246000fd5b60209081029190910101526104f0836001611baf565b92506104fe90508884611baf565b925061032b565b60007f000000000000000000000000000000000000000000000000000000000000000073ffffffffffffffffffffffffffffffffffffffff16630902f1ac6040518163ffffffff1660e01b815260040160606040518083038186803b15801561056d57600080fd5b505afa158015610581573d6000803e3d6000fd5b505050506040513d601f19601f820116820180604052508101906105a59190611ae9565b845163ffffffff91821694506105bf935016905082611c60565b965050505050506108a9565b61ffff80546000916105e09160019116611c3d565b61ffff16905060006105f28688611c00565b6105fc9083611c60565b60408051606081018252600080825260208201819052918101829052919250905b838310156107e75760408051606081018252600080825260208201819052918101829052908461ffff811061067b577f4e487b7100000000000000000000000000000000000000000000000000000000600052603260045260246000fd5b60408051606081018252929091015463ffffffff811683526dffffffffffffffffffffffffffff64010000000082048116602085015272010000000000000000000000000000000000009091041690820152905060006106db8a86611baf565b61ffff8110610713577f4e487b7100000000000000000000000000000000000000000000000000000000600052603260045260246000fd5b60408051606081018252929091015463ffffffff81168084526dffffffffffffffffffffffffffff64010000000083048116602086015272010000000000000000000000000000000000009092048216848401819052928501518551949650610783949216929161049591611c77565b8884815181106107bc577f4e487b7100000000000000000000000000000000000000000000000000000000600052603260045260246000fd5b60209081029190910101526107d2836001611baf565b92506107e090508884611baf565b925061061d565b60007f000000000000000000000000000000000000000000000000000000000000000073ffffffffffffffffffffffffffffffffffffffff16630902f1ac6040518163ffffffff1660e01b815260040160606040518083038186803b15801561084f57600080fd5b505afa158015610863573d6000803e3d6000fd5b505050506040513d601f19601f820116820180604052508101906108879190611ae9565b845163ffffffff91821694506108a1935016905082611c60565b965050505050505b509550959350505050565b61ffff80546000916108c891849116611baf565b61ffff8054919250165b8181101561095d57600160008261ffff8110610917577f4e487b7100000000000000000000000000000000000000000000000000000000600052603260045260246000fd5b0180547fffffffffffffffffffffffffffffffffffffffffffffffffffffffff000000001663ffffffff929092169190911790558061095581611cb6565b9150506108d2565b505050565b60008161ffff811061097357600080fd5b015463ffffffff811691506dffffffffffffffffffffffffffff6401000000008204811691720100000000000000000000000000000000000090041683565b61ffff8054600091829182916109cb9160019116611c3d565b61ffff1661ffff8110610a07577f4e487b7100000000000000000000000000000000000000000000000000000000600052603260045260246000fd5b6040805160608082018352939092015463ffffffff811683526dffffffffffffffffffffffffffff6401000000008204811660208501527201000000000000000000000000000000000000909104168282015280517f0902f1ac000000000000000000000000000000000000000000000000000000008152905191935060009273ffffffffffffffffffffffffffffffffffffffff7f00000000000000000000000000000000000000000000000000000000000000001692630902f1ac926004818101939291829003018186803b158015610ae157600080fd5b505afa158015610af5573d6000803e3d6000fd5b505050506040513d601f19601f82011682018060405250810190610b199190611ae9565b845163ffffffff918216945060009350610b3592501683611c60565b6107081093505050505b90565b60003373ffffffffffffffffffffffffffffffffffffffff7f00000000000000000000000000000000000000000000000000000000000000001614610be7576040517f08c379a000000000000000000000000000000000000000000000000000000000815260206004820152600260248201527f2146000000000000000000000000000000000000000000000000000000000000604482015260640160405180910390fd5b610bef61155f565b905090565b60008060008373ffffffffffffffffffffffffffffffffffffffff168673ffffffffffffffffffffffffffffffffffffffff1610610c33578386610c36565b85845b5061ffff80549192506000918291610c519160019116611c3d565b61ffff1661ffff8110610c8d577f4e487b7100000000000000000000000000000000000000000000000000000000600052603260045260246000fd5b60408051606081018252929091015463ffffffff811683526dffffffffffffffffffffffffffff64010000000082048116602080860191909152720100000000000000000000000000000000000090920416838301526201000054620100015483517f5909c0d500000000000000000000000000000000000000000000000000000000815293519495506000949193909273ffffffffffffffffffffffffffffffffffffffff7f00000000000000000000000000000000000000000000000000000000000000001692635909c0d5926004818101939291829003018186803b158015610d7857600080fd5b505afa158015610d8c573d6000803e3d6000fd5b505050506040513d601f19601f82011682018060405250810190610db09190611b4f565b610dba9190611c00565b610dc49190611bc7565b90506000620100005462010001547f000000000000000000000000000000000000000000000000000000000000000073ffffffffffffffffffffffffffffffffffffffff16635a3d54936040518163ffffffff1660e01b815260040160206040518083038186803b158015610e3857600080fd5b505afa158015610e4c573d6000803e3d6000fd5b505050506040513d601f19601f82011682018060405250810190610e709190611b4f565b610e7a9190611c00565b610e849190611bc7565b905060007f000000000000000000000000000000000000000000000000000000000000000073ffffffffffffffffffffffffffffffffffffffff16630902f1ac6040518163ffffffff1660e01b815260040160606040518083038186803b158015610eee57600080fd5b505afa158015610f02573d6000803e3d6000fd5b505050506040513d601f19601f82011682018060405250810190610f269190611ae9565b63ffffffff1692505050836000015163ffffffff16811415610fe85761ffff8054600091610f579160029116611c3d565b61ffff1661ffff8110610f93577f4e487b7100000000000000000000000000000000000000000000000000000000600052603260045260246000fd5b60408051606081018252929091015463ffffffff811683526dffffffffffffffffffffffffffff6401000000008204811660208501527201000000000000000000000000000000000000909104169082015293505b8351600090610ffd9063ffffffff1683611c60565b9050801561100b578061100e565b60015b90508a73ffffffffffffffffffffffffffffffffffffffff168673ffffffffffffffffffffffffffffffffffffffff16141561106b5761106485602001516dffffffffffffffffffffffffffff1685838d611524565b975061108e565b61108b85604001516dffffffffffffffffffffffffffff1684838d611524565b97505b809650505050505050935093915050565b60008060008473ffffffffffffffffffffffffffffffffffffffff168773ffffffffffffffffffffffffffffffffffffffff16106110de5784876110e1565b86855b5061ffff805491925060009182916110fc9160019116611c3d565b61ffff169050600061110e8783611c60565b604080516060808201835260008083526020808401829052838501829052845192830185528183528201819052928101839052929350919073ffffffffffffffffffffffffffffffffffffffff878116908e1614156112de575b848410156112d95761117b846001611baf565b905060008461ffff81106111b8577f4e487b7100000000000000000000000000000000000000000000000000000000600052603260045260246000fd5b60408051606081018252929091015463ffffffff811683526dffffffffffffffffffffffffffff64010000000082048116602085015272010000000000000000000000000000000000009091041690820152925060008161ffff8110611247577f4e487b7100000000000000000000000000000000000000000000000000000000600052603260045260246000fd5b60408051606081018252929091015463ffffffff81168084526dffffffffffffffffffffffffffff64010000000083048116602080870182905272010000000000000000000000000000000000009094048216948601949094529187015187519496506112bb949216929161049591611c77565b6112c59087611baf565b9550836112d181611cb6565b945050611168565b61144b565b8484101561144b576112f1846001611baf565b905060008461ffff811061132e577f4e487b7100000000000000000000000000000000000000000000000000000000600052603260045260246000fd5b60408051606081018252929091015463ffffffff811683526dffffffffffffffffffffffffffff64010000000082048116602085015272010000000000000000000000000000000000009091041690820152925060008161ffff81106113bd577f4e487b7100000000000000000000000000000000000000000000000000000000600052603260045260246000fd5b60408051606081018252929091015463ffffffff81168084526dffffffffffffffffffffffffffff6401000000008304811660208601527201000000000000000000000000000000000000909204821684840181905292870151875194965061142d949216929161049591611c77565b6114379087611baf565b95508361144381611cb6565b9450506112de565b6114558a87611bc7565b985060007f000000000000000000000000000000000000000000000000000000000000000073ffffffffffffffffffffffffffffffffffffffff16630902f1ac6040518163ffffffff1660e01b815260040160606040518083038186803b1580156114bf57600080fd5b505afa1580156114d3573d6000803e3d6000fd5b505050506040513d601f19601f820116820180604052508101906114f79190611ae9565b855163ffffffff9182169450611511935016905082611c60565b9850505050505050505094509492505050565b600082620100015486866115389190611c60565b6115429085611c00565b61154c9190611bc7565b6115569190611bc7565b95945050505050565b61ffff8054600091829182916115789160019116611c3d565b61ffff1661ffff81106115b4577f4e487b7100000000000000000000000000000000000000000000000000000000600052603260045260246000fd5b6040805160608082018352939092015463ffffffff811683526dffffffffffffffffffffffffffff6401000000008204811660208501527201000000000000000000000000000000000000909104168282015280517f0902f1ac000000000000000000000000000000000000000000000000000000008152905191935060009273ffffffffffffffffffffffffffffffffffffffff7f00000000000000000000000000000000000000000000000000000000000000001692630902f1ac926004818101939291829003018186803b15801561168e57600080fd5b505afa1580156116a2573d6000803e3d6000fd5b505050506040513d601f19601f820116820180604052508101906116c69190611ae9565b8451909350600092506116da915083611c77565b90506107088163ffffffff1611156119cd576000620100005462010001547f000000000000000000000000000000000000000000000000000000000000000073ffffffffffffffffffffffffffffffffffffffff16635909c0d56040518163ffffffff1660e01b815260040160206040518083038186803b15801561175e57600080fd5b505afa158015611772573d6000803e3d6000fd5b505050506040513d601f19601f820116820180604052508101906117969190611b4f565b6117a09190611c00565b6117aa9190611bc7565b90506000620100005462010001547f000000000000000000000000000000000000000000000000000000000000000073ffffffffffffffffffffffffffffffffffffffff16635a3d54936040518163ffffffff1660e01b815260040160206040518083038186803b15801561181e57600080fd5b505afa158015611832573d6000803e3d6000fd5b505050506040513d601f19601f820116820180604052508101906118569190611b4f565b6118609190611c00565b61186a9190611bc7565b6040805160608101825263ffffffff871681526dffffffffffffffffffffffffffff808616602083015283169181019190915261ffff8054929350909160009190811690826118b883611c94565b91906101000a81548161ffff021916908361ffff16021790555061ffff1661ffff811061190e577f4e487b7100000000000000000000000000000000000000000000000000000000600052603260045260246000fd5b82519101805460208401516040909401517fffffffffffffffffffffffffffffffffffffffffffffffffffffffff0000000090911663ffffffff909316929092177fffffffffffffffffffffffffffff0000000000000000000000000000ffffffff166401000000006dffffffffffffffffffffffffffff948516021771ffffffffffffffffffffffffffffffffffff16720100000000000000000000000000000000000093909216929092021790555060019450610b3f9350505050565b6000935050505090565b803573ffffffffffffffffffffffffffffffffffffffff811681146119fb57600080fd5b919050565b80516dffffffffffffffffffffffffffff811681146119fb57600080fd5b600080600060608486031215611a32578283fd5b611a3b846119d7565b925060208401359150611a50604085016119d7565b90509250925092565b60008060008060808587031215611a6e578081fd5b611a77856119d7565b935060208501359250611a8c604086016119d7565b9396929550929360600135925050565b600080600080600060a08688031215611ab3578081fd5b611abc866119d7565b945060208601359350611ad1604087016119d7565b94979396509394606081013594506080013592915050565b600080600060608486031215611afd578283fd5b611b0684611a00565b9250611b1460208501611a00565b9150604084015163ffffffff81168114611b2c578182fd5b809150509250925092565b600060208284031215611b48578081fd5b5035919050565b600060208284031215611b60578081fd5b5051919050565b604080825283519082018190526000906020906060840190828701845b82811015611ba057815184529284019290840190600101611b84565b50505092019290925292915050565b60008219821115611bc257611bc2611cef565b500190565b600082611bfb577f4e487b710000000000000000000000000000000000000000000000000000000081526012600452602481fd5b500490565b6000817fffffffffffffffffffffffffffffffffffffffffffffffffffffffffffffffff0483118215151615611c3857611c38611cef565b500290565b600061ffff83811690831681811015611c5857611c58611cef565b039392505050565b600082821015611c7257611c72611cef565b500390565b600063ffffffff83811690831681811015611c5857611c58611cef565b600061ffff80831681811415611cac57611cac611cef565b6001019392505050565b60007fffffffffffffffffffffffffffffffffffffffffffffffffffffffffffffffff821415611ce857611ce8611cef565b5060010190565b7f4e487b7100000000000000000000000000000000000000000000000000000000600052601160045260246000fdfea264697066735822122047338fd14fa1c5b2d68d248e1d3d0f8e84d4b8a50210c133135a57a8cdfc705064736f6c63430008020033a264697066735822122056353f323f7eb6339165dd284982c0e09546c89dde46258faae2e5ef172a69a664736f6c63430008020033",
  "linkReferences": {},
  "deployedLinkReferences": {}
}